:0300000002009764
:03000B00020030C0
:10003000D2B2E546B4FA13754600E5A05480B48008
:100040000FC2A7120290120297320546120297328F
:09005000D2A712028012029732BD
:03001B0002008060
:10008000D2B0E546B4280A7546001201A31202A7B1
:100090003205461202A73275408075414075440012
:1000A00075A0FF7590FF740075B0FF754700754629
:1000B0000075550075510075520075530075540058
:1000C000C2B0C2B1C2B2C2A7C3D2B185B04253421C
:1000D00080E5428540F0B5F0131201DD85B0435351
:1000E0004340E5438541F0B5F05A80DCE542B480F9
:1000F000088542401201DD80CFE555B4000FE5517F
:1001000004F551B40A0575510080E680E4E555B464
:10011000010FE55204F552B40A0575520080D280F1
:10012000D0E555B4020FE553B4010575530080C105
:1001300075530180BCE554B4010575540080B27557
:10014000540180ADE543B440088543411201DD010F
:10015000C8E555B4030CE554B4000575550080E9B5
:100160008007E55504F55580E0E55275F00AA425B1
:1001700051F544E55375F064A42544F544C2A775D0
:100180004600C28C1201A31202A7C38544F0E550B9
:10019000B5F00CC31201B81201CA12022380EB4061
:1001A000F24145C2A51202B7D2A520A4FDC2A612F3
:1001B00002B7859050D2A62275F06484F532E5F03E
:1001C00075F00A84F53185F030229002C9E530934C
:0C01D000F533E53193F534E53293F53555
:1001DC00229002C9E55193F580D2A31202B753A025
:1001EC00F09002C9E55293F580D2A21202B753A047
:1001FC00F09002C9E55393F580D2A11202B753A037
:10020C00F09002C9E55493F580D2A01202B753A026
:10021C00F022754600217D853380D2A31202B7539C
:10022C00A0F0853480D2A21202B753A0F08535809D
:10023C00D2A11202B753A0F022C28EC2B0D2A71222
:10024C00028075460012029785B043534340E54344
:10025C00B4400280F3C2A51202B7D2A520A4FDC2FD
:10026C00A61202B7E590D2A68544F0B5F00280D86C
:10027C0040A080D47580BFD2A37580BFD2A27580F8
:10028C00BFD2A122C2A3C2A2C2A122D2AFD2A9754F
:10029C008901758CF0758A60D28C22D2AFD2AB7585
:1002AC008910758D63758BC0D28E227F0ADFFE227A
:1002BC007A0E7BFA7CFADCFEDBFADAF622C0F9A4C1
:0702CC00B0999282F88090C6
:00000001FF
